:1000000045C0000060C000005EC000005CC0000091
:100010005AC0000058C0000056C0000054C0000084
:1000200052C0000050C000004EC000004CC0000094
:100030004AC0000048C0000046C0000044C00000A4
:1000400015C1000040C000003EC000003CC00000E0
:100050003AC0000038C0000036C0000034C00000C4
:1000600032C0000030C000002EC000002CC00000D4
:100070002AC0000028C0000026C0000024C00000E4
:1000800022C0000020C000001EC0000011241FBEBE
:10009000CFEFD0E1DEBFCDBF11E0A0E0B1E0E4E200
:1000A000FBE000E00BBF02C007900D92AC35B1073A
:1000B000D9F721E0ACE5B1E001C01D92AC37B20741
:1000C000E1F715D12DC59CCFD098D198089549B3AB
:1000D00021E030E0082E02C0220F331F0A94E2F71D
:1000E00050E024233523A90102C0559547958A95F0
:1000F000E2F7411107C0FB018081813061F4108279
:1001000080E00895413049F4FB018081811107C0EE
:1001100081E08083089580E0089580E0089580E084
:10012000089561E071E080E0D2CF089560E071E071
:1001300081E0CDCF0895919A8FE99FE00197F1F783
:1001400000C0000091988FE99FE00197F1F700C08F
:1001500000000895CF93C82F909882B38F709C2F82
:10016000907F892B82BBE7DF82B3282F2F7030E18D
:10017000C39FC0011124822B82BBDDDFCF91089584
:1001800081706F7090E4899F600D1124862F8058D4
:10019000E1CF0895909892B39F70807F892B82BBA6
:1001A000CACF08958FEF81BB889A899A2FEF89EF84
:1001B00090E0215080409040E1F700C0000080E3D3
:1001C000E9DF8FE19EE40197F1F700C0000080E3D2
:1001D000E1DF9FEF23EC89E0915020408040E1F780
:1001E00000C0000080E3D6DF88E2D4DF88E2B2DF1F
:1001F00088E0B0DF81E0AEDF86E0ACDF8CE0AACF44
:100200000895CF93C82F909A82B38F709C2F907FC0
:10021000892B82BB90DF82B3282F2F7030E1C39FE0
:10022000C0011124822B82BB86DFCF9108950F93EA
:100230001F93CF93FC018081882351F08F01C0E090
:10024000E0DFCF5FF801EC0FF11D8081C817C0F32C
:10025000CF911F910F9108958AB388628ABB089548
:1002600088E08BBB089580E28BBB08951F920F92AC
:100270000FB60F9211240BB60F922F933F934F930B
:100280005F936F937F938F939F93AF93BF93EF93FE
:10029000FF9375D0B5D0FF91EF91BF91AF919F9132
:1002A0008F917F916F915F914F913F912F910F901F
:1002B0000BBE0F900FBE0F901F90189583B78460F0
:1002C00083BF87B7816087BF85E082BF0895CF93E2
:1002D000DF93C82FD62F25DF882331F0809170015E
:1002E0008C1302C0D0937001DF91CF910895ECDEA2
:1002F00059DFB2DFE3DF90D0789402E011E0CCE583
:10030000D1E07BD0E82E76D0F82E71D01F92EF92FC
:100310001F92FF921F928F931F930F93DF93CF93A0
:1003200024D160E080E02CDFCE0181DF809170017C
:100330002DB73EB7265F3F4F0FB6F8943EBF0FBEB6
:100340002DBF81110DC0CE01E5D060E081E018DF46
:10035000CE016DDF9BD084DF61E080E0B8DFD1CFDC
:10036000813079F6CE01D6D060E081E009DFCE01A0
:100370005EDFB2D078DF60E081E0A9DFC2CF80919C
:1003800071019091720101969093720180937101B5
:100390008091710190917201883E934028F11092F2
:1003A000720110927101809175018F5F80937501C8
:1003B000809175018C3338F0109275018091740131
:1003C0008F5F80937401809174018C3338F01092A8
:1003D0007401809173018F5F809373018091730129
:1003E000883110F01092730185E082BF08958091EA
:1003F00073010895809174010895809175010895A5
:100400008091790190917A01019690937A0180937D
:10041000790185E082BF089584B38F6384BB08951A
:1004200095B3907C95BB95B3892B85BB089590912E
:10043000780191110CC081E080937801809179015D
:1004400090917A019093770180937601089520919D
:10045000790130917A014091760150917701241B06
:10046000350B2617370740F010927A011092790168
:100470001092780180937B010895CF93C82F56DEA8
:10048000813011F4C0937B01CF91089580917B015D
:10049000813069F028F0823089F08330B1F008951E
:1004A00084E2BEDF68E873E181E0C1CF089584E1B2
:1004B000B7DF60ED77E082E0BACF089589E0B0DF82
:1004C00068E873E183E0B3CF08958AE0A9DF60EDC7
:1004D00077E080E0ACCF089580917B01813059F0C6
:1004E00028F0823069F0833081F0089584E298DF4B
:1004F00081E0C3CF089584E193DF82E0BECF089509
:1005000089E08EDF83E0B9CF08958AE089DF80E05B
:10051000B4CF0895DC0190917B01913071F028F007
:10052000923099F09330C9F0089581E1E8E1F1E06B
:1005300001900D928A95E1F7089581E1E9E2F1E0F9
:1005400001900D928A95E1F7089581E1EAE3F1E0E7
:1005500001900D928A95E1F7089581E1EBE4F1E0D5
:1005600001900D928A95E1F708950F931F93CF9311
:10057000DF93CDB7DEB72E970FB6F894DEBF0FBE70
:10058000CDBF0D891E8986E08C831A8309838FEF86
:100590009FE79E838D83AE01475E5F4F6F89788DA5
:1005A000CE01019610D0EF81F885E00FF11F108287
:1005B0002E960FB6F894DEBF0FBECDBFDF91CF9160
:1005C0001F910F9108952F923F924F925F926F92D9
:1005D0007F928F929F92AF92BF92CF92DF92EF92D3
:1005E000FF920F931F93CF93DF93CDB7DEB72B9777
:1005F0000FB6F894DEBF0FBECDBF6C017B018A0140
:10060000FC0117821682838181FFBFC1CE01019652
:100610003C01F6019381F70193FD859193FF819150
:100620007F01882309F4ADC1853239F493FD8591AA
:1006300093FF81917F01853221F4B60190E0D6D1FC
:10064000E8CF912C212C312CFFE1F315D8F08B321F
:1006500079F038F4803279F08332A1F4232D2061CF
:100660001DC08D3261F0803369F4232D216016C0E6
:10067000832D8260382EE32DE4603E2E2AC0F32DB8
:10068000F8601DC037FC2DC020ED280F2A3040F047
:100690008E32B9F436FC75C1232D2064322E19C078
:1006A00036FE06C08AE0989E200D1124922E11C0BD
:1006B000EAE02E9E200D1124222EF32DF0623F2E13
:1006C00008C08C3621F4832D8068382E02C088360D
:1006D00041F4F70193FD859193FF81917F01811191
:1006E000B3CF982F9F7D9554933028F40C5F1F4F04
:1006F0009FE399830DC0833631F0833771F08335E2
:1007000009F055C020C0F801808189830E5F1F4F1A
:1007100088248394912C530112C02801F2E04F0EDB
:10072000511CF801A080B18036FE03C0692D70E035
:1007300002C06FEF7FEFC5014ED14C018201F32D56
:10074000FF773F2E15C0280122E0420E511CF80110
:10075000A080B18036FE03C0692D70E002C06FEF4B
:100760007FEFC5012DD14C01F32DF0683F2E8201A2
:1007700033FC19C0822D90E088169906A0F4B601CA
:1007800080E290E033D12A94F5CFF50137FC8591D2
:1007900037FE81915F01B60190E028D121102A94A3
:1007A00021E0821A91088114910479F7E1C084361E
:1007B00011F0893639F5F80137FE07C06081718183
:1007C000828193810C5F1F4F08C060817181072E69
:1007D000000C880B990B0E5F1F4FF32DFF763F2EF9
:1007E00097FF09C090958095709561957F4F8F4FC9
:1007F0009F4FF0683F2E2AE030E0A30133D1882ECE
:10080000861844C0853731F4232D2F7EB22E2AE07E
:1008100030E025C0932D997FB92E8F36C1F018F4A2
:10082000883579F0AEC0803719F0883721F0A9C03B
:10083000E92FE061BE2EB4FE0DC0FB2DF460BF2E8B
:1008400009C034FE0AC0292F2660B22E06C028E057
:1008500030E005C020E130E002C020E132E0F801E4
:10086000B7FE07C060817181828193810C5F1F4F49
:1008700006C06081718180E090E00E5F1F4FA30190
:10088000F1D0882E8618FB2DFF773F2E36FE0DC047
:10089000232D2E7FA22E891458F434FE0BC032FC77
:1008A00009C0832D8E7EA82E05C0B82CA32C03C0B2
:1008B000B82C01C0B92CA4FE0FC0FE01E80DF11D3B
:1008C0008081803321F49A2D997EA92E09C0A2FE41
:1008D00006C0B394B39404C08A2D867809F0B3940B
:1008E000A3FC10C0A0FE06C0B21480F4280C922C09
:1008F0009B180DC0B21458F4B60180E290E076D097
:10090000B394F8CFB21418F42B1802C0982C212CF1
:10091000A4FE0FC0B60180E390E068D0A2FE16C02E
:10092000A1FC03C088E790E002C088E590E0B60132
:100930000CC08A2D867851F0A1FE02C08BE201C066
:1009400080E2A7FC8DE2B60190E050D0891430F42B
:10095000B60180E390E04AD09A94F8CF8A94F301EC
:10096000E80DF11D8081B60190E040D08110F6CFF6
:10097000222009F44ECEB60180E290E037D02A94CE
:10098000F7CFF6018681978102C08FEF9FEF2B96FC
:100990000FB6F894DEBF0FBECDBFDF91CF911F9190
:1009A0000F91FF90EF90DF90CF90BF90AF909F900E
:1009B0008F907F906F905F904F903F902F90089511
:1009C000FC010590615070400110D8F7809590951A
:1009D0008E0F9F1F0895FC0161507040019001101F
:1009E000D8F7809590958E0F9F1F08950F931F93B2
:1009F000CF93DF93FB01238121FD03C08FEF9FEF96
:100A00002CC022FF16C046815781248135814217B0
:100A1000530744F4A081B1819D012F5F3F4F318383
:100A200020838C93268137812F5F3F4F3783268326
:100A300014C08B01EC01FB010084F185E02D0995C8
:100A4000892BE1F6D80116968D919C911797019606
:100A500017969C938E931697CE01DF91CF911F919D
:100A60000F910895FA01AA27283051F1203181F120
:100A7000E8946F936E7F6E5F7F4F8F4F9F4FAF4FA6
:100A8000B1E03ED0B4E03CD0670F781F891F9A1FB9
:100A9000A11D680F791F8A1F911DA11D6A0F711D6D
:100AA000811D911DA11D20D009F468943F912AE079
:100AB000269F11243019305D3193DEF6CF01089561
:100AC000462F4770405D4193B3E00FD0C9F7F6CF92
:100AD000462F4F70405D4A3318F0495D31FD40525A
:100AE000419302D0A9F7EACFB4E0A69597958795F0
:100AF00077956795BA95C9F70097610571050895CF
:100B00009B01AC010A2E069457954795379527957A
:100B1000BA95C9F7620F731F841F951FA01D089512
:040B2000F894FFCF77
:100B2400010154696D653A20253032643A2530322A
:100B3400643A253032642000566572743A20522C8F
:100B440020486F72693A204700566572743A205201
:100B54002C20486F72693A205900566572743A2005
:100B6400472C20486F72693A205200566572743AD5
:0C0B740020592C20486F72693A20520072
:00000001FF
